:020000040800F2
:1000000000100020C912000815130008151300087D
:1000100000000000000000000000000000000000E0
:1000200000000000000000000000000015130008A0
:10003000000000000000000015130008A1100008D7
:100040001513000815130008951100081513000872
:1000500015130008011200081512000815130008F6
:1000600015130008D5110008A11200081513000887
:1000700015130008151300081513000815130008C0
:1000800015130008151300080000000045120008B1
:1000900015130008151300081513000815130008A0
:1000A000151300081513000815130008C5100008E3
:1000B00015130008000000001513000800000000E0
:1000C0005FF808F1024B00221A7018707047C046A2
:1000D00002100240064B1A6A01218A431A621A6A08
:1000E00003318A431A621A6A104318627047C04685
:1000F00000100240002805D0054A516A01230B4335
:10010000536204E0024A536A01218B4353627047F1
:1001100000100240044B1A6B03218A431A631A6BC6
:10012000104318637047C0460010024038B5041CE5
:100130003E4B5B680C221340042B06D0082B07D0E3
:10014000002B1CD13A4B03601BE0394B036018E0D5
:10015000364B5D685B68AD022D0F0235DB0303D4BF
:100160003448454325600CE0304BDB6A0F211940D1
:1001700001312F4801F0CEFE4543256001E02C4BB4
:1001800003602A494B681B061B0F2B48C35CDBB27C
:1001900025682A1CDA40131C62604A685205520F17
:1001A000825CD2B2D340A3600A6BD20502D4234A48
:1001B000E26008E01D4A5268520402D45A08E26024
:1001C00001E09A08E260194A126B520602D41C4AF6
:1001D000226102E0802212022261144A126BD206CE
:1001E00002D4134A626100E06561104A126B920703
:1001F00001D1A36119E00D4B1B6B03221340012BAE
:1002000001D1A56111E0094B1B6B03221340022BA6
:1002100003D180231B02A36107E0044B1B6B032265
:100220001340032B01D1024BA36138BD00100240E3
:1002300000127A0000093D0000000020809FD500D8
:1002400012800000024A136A184310627047C046C9
:1002500000100240002806D0064A136A80210902D5
:100260000B43136204E0034A116A034B0B40136211
:100270007047C04600100240FF7FFFFF002904D0F6
:10028000044A53691843506103E0024A53698343A7
:100290005361704700100240002904D0044A93695A
:1002A0001843906103E0024A936983439361704766
:1002B00000100240002904D0044AD3691843D061D9
:1002C00003E0024AD3698343D361704700100240C0
:1002D000002904D0044AD3681843D06003E0024ADE
:1002E000D3688343D360704700100240002904D0D4
:1002F000044A13691843106103E0024A13698343F7
:100300001361704700100240430902D10A4B1B6879
:100310000BE0012B02D1084B1B6A06E0022B02D135
:10032000054B5B6A01E0044B5B6B1F221040C3402E
:10033000181C0123184070470010024010B5074BED
:10034000984209D18024A400201C0121FFF7C0FF9E
:10035000201C0021FFF7BCFF10BDC0460024014057
:1003600010B5C3688C680A681443CA6814430A69E4
:1003700014434A691443044A134023430A7952033D
:100380001343C36010BDC04603D2FFFF00230360C8
:1003900003718360C360036143617047002904D027
:1003A000826801231343836003E0826802231343BE
:1003B00083607047836A1943816242617047C04617
:1003C000836880221206134383608368DB0FDB0798
:1003D000084A05E08368DB0FDB07013A002A01D0F9
:1003E000002BF7D18368002B01DB006C00E00020BC
:1003F0007047C046FFEF0000826804231343836008
:100400007047C046002904D0C26801231343C3606B
:1004100003E0C36801229343C3607047C3680222AC
:100420009343C360C3681943C1607047CB0103D5D0
:100430008068044B184000E000680840411E884175
:10044000C0B27047FFFFFFFEF0B55F4656464D460F
:100450004446F0B489B0041CCB1C0320984308D058
:100460004018C0B2FF2363540131C9B28142FAD1AE
:1004700000E0081C00285BD005AB99460023984695
:1004800001274346E55CA9B2CA460822131C083B73
:100490002B4EF35C2B401E0973409E0873405E0890
:1004A00073403B409340C91889B201320C2AEDD108
:1004B0005346198001239C46E04401339C46E144A5
:1004C00043466A46D371D3798342DAD3430018187E
:1004D0004010C0B200282BD005AB198803AD29709D
:1004E0005B886B70F022120113401A11090A8B18F5
:1004F000AB7003280BD905AB9988E970DB882B71A9
:10050000F022120113401A11090A8B186B71002195
:1005100000250BE0621803AE7618F65CD654013362
:10052000062BF7D10631C9B2884201D92B1CF1E75D
:1005300009B03CBC90469946A246AB46F0BDC046C9
:1005400018220008F0B50488002100270D4E01256F
:100550004A00331DD35A23401A0A53401A09534004
:100560009A0853405A0853402B408B40FB18DFB287
:1005700001310429ECD17B00024FFB189B895C40C0
:100580000480F0BD18220008F0B55F4656464D467F
:100590004446F0B487B0071C0191101C062101F0FD
:1005A000B9FCC0B24300C3185B00DBB29B46002617
:1005B0000025002B50D11E1C5DE05A19BA18107886
:1005C0002A1C02ACA4466244D0540133062BF4D159
:1005D000281C60448278914604AC0F2294460F2177
:1005E0004A4611400902884602A9495D41442180DA
:1005F00061464B468B431B014178CB18638043799E
:100600000F221A401202C1788A18A28062469343D0
:100610001B010279D318E38006AB9946FF23984665
:10062000201CFFF78FFF23884246134023800234AB
:100630004C45F5D104AB1A8851468A558A19598818
:10064000517099889170DB88D3700436F6B2063504
:10065000EDB2AB4502D803E00B4B9A460023ACE762
:10066000301E08D000230849019C5A5CE254013333
:10067000DAB28242F9D3301C07B03CBC90469946AE
:10068000A246AB46F0BDC04654000020014B1860A6
:100690007047C04600300040014B58607047C0466C
:1006A00000300040014B98607047C0460030004069
:1006B000014A024B1A607047AAAA000000300040AD
:1006C000014A024B1A607047CCCC00000030004059
:1006D000F8B5031C323B9BB2FA22120193422BD88D
:1006E000174B00229A5E041C824209DD0023144D40
:1006F0000133DBB2191C9A00525FA242F8DC00E021
:100700000021944204D189000D4B5918488814E007
:100710004B1E0B4D890069184C8821B29B00EE18C6
:100720000227F65F891B801A4843595F891A01F036
:1007300081FC201A80B200E0024800B2F8BDC04639
:1007400010000020FF3F000008B5084B1B78002B6D
:1007500005D007480221012200F052FF04E00448BE
:100760000121012200F04CFF08BDC0468601002097
:100770000014004870B594B03D4D281CFFF7DEFD15
:10078000802080000121FFF787FD01200121FFF774
:1007900075FD12A9902312938D3B0B710024CC712F
:1007A0009020C00500F0DAFE0CAE301CFFF7EEFD25
:1007B0000C94346174613471B460281C311CFFF7EF
:1007C000CFFD281C10210622FFF7F4FD281C8021F4
:1007D0000622FFF7EFFD274E301C00F09DFD01A81B
:1007E00000F000FE244B0193244B02930394022358
:1007F000049305947E330693803307938023DB00B4
:1008000008932023099380239B010A930B94301CA7
:1008100001A900F0C9FD301C0221012200F0FEFDFB
:1008200009236A461370547001239370684601F0DF
:1008300041FB301C012100F0E3FD281C0221FFF7E1
:10084000EDFD281C0121FFF7DDFD281CFFF7B8FD99
:10085000281C0121FFF7A2FD2C1C201C0121FFF701
:10086000E5FD0028F9D00248FFF7C6FD14B070BDC1
:1008700000240140080002404024014060000020A4
:1008800070B582B00222334B1A70022816D0324B58
:100890001A88324B9A4202D91A1C2F4B1A802E4BBF
:1008A0001A88130A69460B704A702D4A1278002A7A
:1008B0004AD08022524213430B7045E000240021AD
:1008C00001E003240221274B1B881AB2002A03DA15
:1008D0000022244B1A8005E01BB2234A934201DD1B
:1008E000204B1A801F4B18885B780A1C6A44507092
:1008F0001E4A127813436A46535403340231C9B274
:100900006846FFF7A1FD002C14D0002318491948B0
:100910000D1C0A8892B26E469E5D86540A8892B279
:10092000FD2A03D82A88013292B22A800133DAB232
:10093000A242EED30022104B1A8008E06846042140
:10094000FFF782FD0324E0E70128BAD1F6E702B001
:1009500070BDC046940100208C010020FF1F0000E4
:100960009301002074010020FF0100008601002097
:1009700078010020740000205C00002070B58CB06D
:10098000802040050121FFF795FC012001F054FA79
:100990000120FFF7AFFB4120FFF7B6FC0028FAD09B
:1009A00080208000FFF74EFC0120FFF753FC00F091
:1009B000A1FE002309937F330A93B9330B9309A84F
:1009C00000F072FE002800D1FEE78024A402201C63
:1009D00001F02CFA02A80294002404710823437148
:1009E0000125857101F0DCF901A80226067044702A
:1009F000857001F05FFA04AAD47015705470967077
:100A000031231373946080231B065360FE3601204C
:100A1000311C00F0EFFE301C012100F039FF802670
:100A20007601301C012100F065FF08A9CC700D7023
:100A30004C708C70012000F089FE301C00F09AFF91
:100A40000CB070BD70B58CB0041C204800F064FC84
:100A500001AB1F4A01921F4A5A6010229A60221C61
:100A6000FF2C00D9FF2292B2DA6000240594802383
:100A7000069307940894099480235B010A930B94CE
:100A8000124D281C01A900F08FFC134E301C802150
:100A9000012200F0F9FF202000F0CAFC301C4021A8
:100AA00001F018F8281C0221012200F0B7FC0A23EB
:100AB0006A461370547001239370684601F0FAF986
:100AC000281C012100F09CFC0CB070BD1C000240F1
:100AD000283801407400002000380140F0B55F461E
:100AE00056464D464446F0B48FB00127E04B1F7088
:100AF000802080020121FFF7C1FB8020C00201217C
:100B0000FFF7BCFB8020C0030121FFF7B7FB0120EA
:100B100001F092F90020FFF7DDFA0020FFF7D2FA8A
:100B200008AC2123089327710025A571E571657133
:100B30009026F605301C211C00F010FD03230893BD
:100B40002771A571E5716571CA4D281C211C00F043
:100B500005FD281C0121012200F052FD281C022164
:100B6000012200F04DFD301C2021002200F048FD44
:100B70000120FFF7BFFA4120FFF7C6FB0028FAD09B
:100B8000BD48FFF783FD0320FFF786FDBB48FFF755
:100B900089FDFFF78DFDFFF793FD002700239946A0
:100BA000B74B1F80B24B1878FFF7E4FDB54B9B465F
:100BB0001868FA21890001F0ADF9461EB6B280200E
:100BC00040000121FFF776FBAF4800F0ADFF05AD17
:100BD000281C01F075F808AC201C01F0C7F8AB4BDD
:100BE0006B602E802F816F80A748291C01F016F8BA
:100BF000278027820223A381A7606780A248211C47
:100C000001F076F803AE132333704B467370012363
:100C10009A46B370301C01F04DF99B480221012225
:100C200001F0B0F8082001F001F9082305934B46C4
:100C30002B710C2398466B715346AB71281C01F045
:100C4000AFF8062302AA1370131C4A465A70524684
:100C50009A70181C01F02EF98020C0010121FFF7C5
:100C60001BFB0120FFF756FA43460393022333711F
:100C70004B46B371F37173719025ED05281C311C3F
:100C800000F06CFC281C0221012200F0BFFC281C93
:100C90000321012200F0BAFC9623DB010893676070
:100CA000A760E760676143462361794D281C211CDA
:100CB00000F070FE281C80218902012200F0D6FE7F
:100CC000281C012100F0C6FE1B2302AA1370131C6E
:100CD0004A465A7052469A70181C01F0EBF8281CCC
:100CE0006C49012200F0DAFE14226B4B1A705B464D
:100CF0001868322101F00EF9684B984210D80302AF
:100D00001B0A013B664A536066490B6A1B021B0AB9
:100D1000C020000603430B62002393600733136077
:100D2000604A136A1B021B0A1362514B1878FFF7C3
:100D300025FE00235C4A13705C4A13705C4A1370F2
:100D40005C4A13805C4A13805C490022CA54013318
:100D50000A2BFBD100235A4A13705A4A13705A4A7D
:100D600013805A4A13805A4E3378002B00D1DAE0B0
:100D7000584F3B8858485843584901F0CBF8584BD6
:100D80001880788880B2FFF7A3FC564B18803B8808
:100D90009BB2554A934203D90122444B1A7008E092
:100DA0004C4B1B889BB2514A934202D800223F4BC6
:100DB0001A703E4B1A789020C005202100F020FCCC
:100DC00000224B4B1A70434B1B889BB285221201A9
:100DD000934202D82022464B1A703E4B1B889BB28E
:100DE000444A934204D9424A117840230B4313707A
:100DF0003C4B00229A5EE1235B009A4205DD3C4AAF
:100E00001378802149420B431370274B1B78002B2A
:100E100004D02E4A13880133138002E000222B4BAA
:100E20001A80254B1B889BB21D2B67D901221E4BB4
:100E30001A7000221F4B1A801D4B1B78022B02D107
:100E400001321B4B1A701A4B1878FFF719FD1E4B15
:100E5000188880B22849FFF7F5FD0B4F381C002198
:100E600000F03AFF381C022100F096FF58E0C0461F
:100E7000760100200014004855550000040C0000C5
:100E80007A0100205000002000200040E8FD000012
:100E900000380140050105008E010020FFFFFF0022
:100EA00010E000E000ED00E08A0100209301002046
:100EB00092010020880100205C0000207C010020BD
:100EC0005E0000208F0100207801002090010020AA
:100ED000870100206000002088130000FF0F000041
:100EE0008C010020740100205B0B00004A0B000005
:100EF00086010020AD0B000074000020574B1F88B6
:100F0000574B19780A20FF3001F094F8874207DD2B
:100F10000023544A1370514A1380534B00221A7015
:100F20000022524B1A70524B1B78002B75D0514B3C
:100F30001B78514A1278DBB293426BD04D4B1B7831
:100F40004D4A1278DBB2934206D94A4B1B784A4A83
:100F500012789B1ADBB206E0464B1B78464A1278A1
:100F60000A339B1ADBB2022B54D9434B1B784348FC
:100F7000C01808AF391C0322FFF706FB3B780F228D
:100F8000191C91430A1EF02A03D1EE3A3C4B1A7009
:100F900010E03B49097802290CD1E02A0AD1013935
:100FA000374A11700F2213401B0208AA5278D31837
:100FB000344A13800323344F2F4A90462F4A9446D5
:100FC000324C45463A8892B2414609786846C1712A
:100FD000C1796046415CA1543A8892B2FD2A05D895
:100FE000294A1288013292B227490A802A78D2B25D
:100FF000082A05D8204A12780132D2B21E490A7056
:10100000013BDBB2002BDDD11B4A1370194A137070
:101010001F4A13800022164B1A701E4B1B785B066A
:1010200004D41D480221002200F0EAFA1A480121E6
:10103000002200F0E5FA0C4B1B78002B03D00220B5
:1010400000F00EFF90E6FFF733FB0120012100F0D6
:1010500015FF124B1878FFF791FC85E690010020F0
:101060008E010020940100208A01002087010020C9
:10107000700000208F0100205E0000207C01002015
:1010800092010020880100207801002074000020D7
:101090005C0000208601002000140048760100203A
:1010A00008B580210906C0235B00044AD150FFF730
:1010B0004BFB034B1878FFF75DFB08BD00E100E038
:1010C0007601002038B5FFF73FFB2848284900F09B
:1010D00003FD002825D0274C2578EDB2234800F0E9
:1010E000CFFCC0B2244B585523780133DBB22370B8
:1010F0002378DBB2092B02D900221E4B1A7001257E
:101100001E4B1D701E4C201C002100F0E3FD201C16
:10111000052100F035FE201C012100F0DDFD194BFA
:101120001D701248184900F0D7FC002819D00F4D47
:10113000154C281C211C002200F0B0FC281C211C8E
:1011400000F0ECFC00240D4B1C700D48002100F059
:10115000C3FD0E4B1C800E4B00221A700122094B5E
:101160001A700248082100F0B5FC38BD0038014073
:10117000050105008F0100207C0100209401002062
:1011800000200040700000200601060078010020C9
:101190008A01002008B58020400100F0CFFB002824
:1011A00012D08020400100F0E5FBFFF7CDFA074B9D
:1011B0001878FFF7DFFA064A138802339BB21380D0
:1011C0008020800200F032FE08BDC046760100207B
:1011D0005C00002008B5022000F030F9002809D09A
:1011E00005480021FFF7DAF80122044B1A700120AC
:1011F00000F02EF908BDC046002401408701002000
:1012000008B5012000F008FE002802D0012000F0FF
:101210000DFE08BD08B5082000F0FEFD00280BD02B
:10122000082000F003FE054B1B78002B04D101338E
:10123000024A1370024A137008BDC0468A0100209A
:101240007000002010B5104B1B889BB2002B09D0FA
:101250000E4B1878FFF714FB0B4B188880B20C4923
:10126000FFF7F0FB00230B4A13700B4A1370064A7A
:1012700013800A4C201C002100F02EFD201C0221AE
:1012800000F08AFD10BDC0467801002092010020C8
:10129000740000205E0000208F010020002000402C
:1012A00008B5202000F0CAF8002807D004480549F6
:1012B000012200F0F3FB102000F0CAF808BDC04680
:1012C00000380140060106000C488546002103E075
:1012D0000B4B5B58435004310A480B4B42189A425F
:1012E000F6D30A4A02E0002313600432084B9A4204
:1012F000F9D300F001F9FFF7F1FBFEE70010002041
:101300004422000800000020540000205400002067
:1013100098010020FEE7000002681C4B13400360A8
:101320000023036043608360C360194B984205D17A
:10133000184A51680F230B43536025E0164B98421F
:1013400005D1144A5168F0230B4353601CE0134B42
:10135000984206D10F4A5368F02109010B435360AC
:1013600012E00F4B984206D10A4A5368F021090255
:101370000B43536008E00B4B984205D1054A536874
:10138000F02109030B4353607047C046FEFF000085
:1013900008000240000002401C00024030000240F1
:1013A000440002405800024010B502680C4B1A403D
:1013B0000B6A8C6823430C6923434C6923438C6973
:1013C0002343CC6923434C6A23438C6A234313434E
:1013D0000360CB6843600B6883604B68C36010BDDB
:1013E0000F80FFFF0023036043608360C3600361DD
:1013F00043618361C3610362436283627047C04695
:10140000002904D0026801231343036003E002684B
:10141000014B134003607047FEFF0000002A03D019
:1014200003681943016002E003688B43036070475F
:10143000014B58607047C04600000240034B1B68D8
:101440001840431E9841C0B27047C0460000024099
:10145000014B58607047C0460000024082B0002334
:1014600001930093009B012B2BD111221D4B1A607D
:101470001D4B5A685A605A685A6059681B4A0A409C
:101480005A605A68882149030A435A601A688021C1
:1014900049040A431A60191C802292040B68134203
:1014A000FCD0114B5A6803218A435A6059680222C2
:1014B0000A435A60191C0C224B681340082BFBD1BD
:1014C0000EE01122074B1A60074B5A685A605A689F
:1014D0005A605968054A0A405A60054A054B1A6025
:1014E00002B070470020024000100240FFFFC0FF22
:1014F00000127A005000002008B5124B1A68012132
:101500000A431A605868104A02405A6018680F4A25
:1015100002401A6018680E4A02401A6058680D4A64
:1015200002405A60DA6A0F208243DA62186B0A4A74
:1015300002401A635A6B8A435A6300229A60FFF78B
:101540008DFF08BD001002400CB8FF08FFFFF6FE3B
:10155000FFFFFBFFFFFFC0FFACFEFFFFF0B54F46F4
:101560004646C0B40025002201260327331C9340C1
:101570000C681C409C423AD10B79013B012B1DD8D1
:1015800083683C1CAC40A343836084684B79AB40C8
:10159000234383608388984613041B0C9946341CAC
:1015A0009C404346A34383808488A4468C794B4661
:1015B0009C40231C644623439BB2838003683C1CED
:1015C000AC40A343036004680B79AB402343036042
:1015D000C3689C461304DB0B3C1C9C40231C6446E4
:1015E0009C43C460C468CB79AB402343C3600132E1
:1015F0000235102ABAD10CBC90469946F0BDC046BF
:10160000002A01D0816100E00185704710B50723F1
:101610000B409B00C90889004018016A0F249C40B8
:10162000A1430162016A9A40131C0B43036210BD7F
:10163000092807D900230133DBB20A38C0B20928D0
:10164000F9D800E000231B011843C0B27047C04620
:1016500010B582B0002301930E4BDB6801205B06BE
:1016600016D4012252420B4BDA601C1C3F30802101
:10167000C901E36803401A1C019B01330193019BDC
:101680008B4201D0002AF4D0024BD8684006C00F2C
:1016900002B010BD00280040024AD36880218B436D
:1016A000D36070470028004010B5041C104BCA22BC
:1016B0005A62773A5A62FFF7CBFF0023002812D014
:1016C0000B4B9A6840218A439A609A6821680A43C2
:1016D0009A60A2681A611969626812040A431A6161
:1016E000FFF7DAFF0123FF21014A5162181C10BDE8
:1016F0000028004010B582B000230193124B9B6874
:1017000001209B061DD4104BCA225A62773A5A62B6
:10171000DA68A0218A43DA601C1C1F30802109028C
:10172000E36803401A1C019B01330193019B8B4228
:1017300001D0002AF4D0044BD8688006C00FFF22E5
:101740005A6202B010BDC0460028004070B50C1CA3
:10175000002806D1254B9B685B062FD40023CB7055
:101760002CE0224B9B685B061CD40023CB7019E055
:101770001E4BCA225A62773A5A62FFF769FF00236A
:1017800000282ED01A480440184D2C60FFF784FF23
:10179000AA680123920624D4FFF7ACFF431E9841A8
:1017A000C3B21EE02378180463781B020343A078B9
:1017B0001843E3781B041843041CD9E72078FFF78B
:1017C00037FF061C6078FFF733FF051CA078FFF792
:1017D0002FFFE47824040443360434432D022C43C1
:1017E000C6E7FF21014A5162181C70BD0028004065
:1017F0007F7F7F00F8B5002806D1244B9B685B06ED
:1018000024D40023D37021E0204B9B685B060BD4CB
:101810000023D37008E01D4BCA225A62773A5A62FD
:10182000D861AC325A622FE05068936818439378BD
:10183000184313781B04184353781B021843D378BA
:101840001B041843137B1B061843E4E7141C107891
:10185000FFF7EEFE061C6078FFF7EAFE051CA07895
:10186000FFF7E6FE071C207BFFF7E2FE6368A26835
:101870001343E278120413433B4336041E432D0204
:10188000354300062843C6E7F8BDC046002800409F
:1018900010B582B000230193154BCA225A62773AE1
:1018A0005A62002905D01A1C9B68184390600120D9
:1018B00018E00F4A936883439360000A141C802148
:1018C000C901E36803401A1C019B01330193019B8A
:1018D0008B4201D0002AF4D0054BDB681840431E30
:1018E0009841C0B2FF22024B5A6202B010BDC046FE
:1018F0000028004010B5104BCA225A62773A5A624B
:1019000000290AD099684F3A041C944321439960F6
:10191000196C1040084318640AE0074B9A680421C8
:10192000041C8C43A2439A601A6C084082431A64D8
:10193000FF22014B5A6210BD0028004030B50C490F
:101940000B6C8A68CC6804211940830C051CDD40AF
:10195000EB0B0B40024013430022002B06D0240463
:10196000240C00092040441EA041C2B2101C30BD0E
:101970000028004010B50649CA680003000C802406
:10198000031C2343D843231C13401843C86010BDD5
:1019900000280040F0B58BB0041C0D1C0368012228
:1019A000934303604268264B13408A6813434360A5
:1019B0000268244B1A40CB6849680B4329690B43E2
:1019C000134303608268204B13406A6913438360AA
:1019D00003A8FEF7ABFB1D4B9C4201D1099E00E022
:1019E000059E23681B040CD576002B68301C0193E0
:1019F000191C00F08FFA071C301C019900F010FB35
:101A00000AE02B68301C0193191C00F083FA071CB4
:101A1000301C019900F004FB2A685208002391420F
:101A20005B41FF1823681B0405D53A07520F084B8A
:101A30003B401A43171CBBB2A3810BB0F0BDC0469C
:101A4000FFCFFFFFF3E9FFFFFFFCFFFF003801407E
:101A5000F0FF0000002904D0026801231343036053
:101A600003E003680122934303607047002A03D018
:101A700043681943416002E043688B434360704709
:101A8000808CC005C00D7047002A03D083681943BD
:101A9000816002E083688B438360704730B5051C2A
:101AA0008CB2240AFF231940FE3B8B40191C022CE8
:101AB00001D1051D03E0032C01D10830051C002ACB
:101AC00003D02B681943296002E02B688B432B60FD
:101AD00030BDC0460162704710B58AB2120AFF23BA
:101AE0000B401C1C0123A340012A02D102681340B1
:101AF00006E0022A02D14268134001E082681340E6
:101B0000C2690020002B07D0090C01238B401A402A
:101B1000101C411E8841C0B210BDC046090C0123F3
:101B20008B4003627047C04610B5354B98420AD1CE
:101B300080242401201C0121FEF7CAFB201C002167
:101B4000FEF7C6FB5BE08023DB05984208D101204D
:101B50000121FEF7CBFB01200021FEF7C7FB4EE081
:101B6000284B984208D102200121FEF7BFFB02203A
:101B70000021FEF7BBFB42E0234B984208D1102026
:101B80000121FEF7B3FB10200021FEF7AFFB36E08A
:101B90001E4B98420AD180246400201C0121FEF7CC
:101BA000A5FB201C0021FEF7A1FB28E0184B984262
:101BB0000AD180246402201C0121FEF789FB201C2D
:101BC0000021FEF785FB1AE0124B98420AD18024CF
:101BD000A402201C0121FEF77BFB201C0021FEF744
:101BE00077FB0CE00C4B984209D18024E402201CC6
:101BF0000121FEF76DFB201C0021FEF769FB10BDE3
:101C0000002C014000040040001000400020004073
:101C100000400140004401400048014010B50388E5
:101C20009BB2204A904206D08022D205904202D038
:101C30001D4A904231D1702293434A8813431B4A74
:101C4000904219D00A891A4C2340134303804B68F1
:101C5000C3620B880385134B984208D0154B9842FA
:101C600005D0154B984202D0144B984201D18B7A83
:101C700003860123838214E00C4A13804B68D362ED
:101C80000B881385F5E70A89094C23401343038029
:101C90004B68C3620B880385E0E7044A9042F2D1A7
:101CA000EAE710BD002C0140000400400010004095
:101CB000FFFCFFFF0040014000440140004801409C
:101CC00001235B42436000230380038143808372CE
:101CD0007047C04641627047002904D00288012342
:101CE0001343038003E0038801229343038070477A
:101CF00070B5038C012293430384038C8488A4B2BF
:101D0000058B723295430A881543022293431E1CA9
:101D10004B888A89134333430F4A904208D00F4AB5
:101D2000904205D00E4A904202D00E4A90420DD108
:101D300008229343CA891343042293438A88134396
:101D4000094A14404E8A0A8A324314438480058328
:101D50008A684263038470BD002C0140004001404A
:101D60000044014000480140FFFCFFFF00230380C6
:101D70004380838083608381C38103824382704771
:101D800041637047002A03D083891943818102E0AF
:101D900083898B4383817047C94389B2018270472D
:101DA00010B58379002B2CD01A4B1A6801688A432E
:101DB0001A605A6801688A435A6002799C466244F4
:101DC00011680468214311609A6801688A439A6027
:101DD000DA6801688A43DA604379102B09D16346D7
:101DE0009A6801680A439A60D96802680A43DA600F
:101DF0000FE0084A94466344196802680A431A606F
:101E000007E00379034A944663441A6801688A43E9
:101E10001A6010BD00040140034B5B691840431E6B
:101E20009841C0B27047C04600040140014B586160
:101E30007047C04600040140002806D0064A1368D7
:101E4000802149000B43136004E0034A1168034BEF
:101E50000B4013607047C04600700040FFFEFFFF5C
:101E6000054A136904218B431361012801D130BF56
:101E700000E020BF7047C04600ED00E010B50B4AFF
:101E800013680324A34318431060094A106904230C
:101E900003431361012901D130BF00E020BF044A90
:101EA000136904218B43136110BDC04600700040CC
:101EB00000ED00E070B58378002B1ED00278950805
:101EC000AD00134B9C466544C026B600AB590324B5
:101ED0002240D400FF22111CA1408B43417889018C
:101EE0000A40A2401343AB5103781F2213401E3A0D
:101EF0009A40131C6246136008E003781F221340C7
:101F00001E3A9A40131C802201498B5070BDC04676
:101F100000E100E0002243088B4274D303098B42A6
:101F20005FD3030A8B4244D3030B8B4228D3030CA9
:101F30008B420DD3FF22090212BA030C8B4202D34B
:101F40001212090265D0030B8B4219D300E0090A73
:101F5000C30B8B4201D3CB03C01A5241830B8B427C
:101F600001D38B03C01A5241430B8B4201D34B0365
:101F7000C01A5241030B8B4201D30B03C01A5241CA
:101F8000C30A8B4201D3CB02C01A5241830A8B424F
:101F900001D38B02C01A5241430A8B4201D34B0238
:101FA000C01A5241030A8B4201D30B02C01A52419C
:101FB000CDD2C3098B4201D3CB01C01A5241830950
:101FC0008B4201D38B01C01A524143098B4201D38A
:101FD0004B01C01A524103098B4201D30B01C01AB5
:101FE0005241C3088B4201D3CB00C01A524183082F
:101FF0008B4201D38B00C01A524143088B4201D35C
:102000004B00C01A5241411A00D2014652411046BB
:102010007047FFE701B5002000F0FCF802BDC046A4
:102020000029F7D003B5FFF775FF0EBC4243891AAC
:102030001847C04603460B437FD4002243088B4217
:1020400074D303098B425FD3030A8B4244D3030B3F
:102050008B4228D3030C8B420DD3FF22090212BA04
:10206000030C8B4202D31212090265D0030B8B4280
:1020700019D300E0090AC30B8B4201D3CB03C01A6A
:102080005241830B8B4201D38B03C01A5241430B45
:102090008B4201D34B03C01A5241030B8B4201D335
:1020A0000B03C01A5241C30A8B4201D3CB02C01AA0
:1020B0005241830A8B4201D38B02C01A5241430A18
:1020C0008B4201D34B02C01A5241030A8B4201D307
:1020D0000B02C01A5241CDD2C3098B4201D3CB01AE
:1020E000C01A524183098B4201D38B01C01A52415D
:1020F00043098B4201D34B01C01A524103098B4261
:1021000001D30B01C01A5241C3088B4201D3CB004B
:10211000C01A524183088B4201D38B00C01A52412E
:1021200043088B4201D34B00C01A5241411A00D2DE
:1021300001465241104670475DE0CA0F00D0494247
:10214000031000D34042534000229C4603098B42B7
:102150002DD3030A8B4212D3FC22890112BA030A3F
:102160008B420CD3890192118B4208D389019211C1
:102170008B4204D389013AD0921100E08909C30946
:102180008B4201D3CB01C01A524183098B4201D348
:102190008B01C01A524143098B4201D34B01C01A33
:1021A000524103098B4201D30B01C01A5241C308AB
:1021B0008B4201D3CB00C01A524183088B4201D31A
:1021C0008B00C01A5241D9D243088B4201D34B0035
:1021D000C01A5241411A00D20146634652415B1077
:1021E000104601D34042002B00D549427047634658
:1021F0005B1000D3404201B5002000F00BF802BD97
:102200000029F8D003B5FFF715FF0EBC4243891A29
:102210001847C0467047C046D5B30FE8E8080F041A
:10222000B302D501000000080004080000022000ED
:102230000200080200014000040084001000800039
:042240000100010890
:102244000000000001020304010203040607080958
:1022540000100CFEB50D06FF810B9CFFE905C800BC
:1022640066042C01370390015402F401B0015802B2
:102274003A01BC02E6002003AB00840300000A0517
:102284000000000000000000010203040607080922
:04229400006CDC02FC
:0400000508000000EF
:00000001FF
